{
  "contractName": "DeltaChimp",
  "abi": [
    {
      "inputs": [],
      "stateMutability": "nonpayable",
      "type": "constructor"
    },
    {
      "anonymous": false,
      "inputs": [
        {
          "indexed": true,
          "internalType": "address",
          "name": "from",
          "type": "address"
        },
        {
          "indexed": true,
          "internalType": "address",
          "name": "to",
          "type": "address"
        },
        {
          "indexed": true,
          "internalType": "uint256",
          "name": "tokenId",
          "type": "uint256"
        }
      ],
      "name": "Transfer",
      "type": "event"
    },
    {
      "inputs": [
        {
          "internalType": "address",
          "name": "_owner",
          "type": "address"
        }
      ],
      "name": "balanceof",
      "outputs": [
        {
          "internalType": "uint256",
          "name": "",
          "type": "uint256"
        }
      ],
      "stateMutability": "view",
      "type": "function",
      "constant": true
    },
    {
      "inputs": [
        {
          "internalType": "uint256",
          "name": "",
          "type": "uint256"
        }
      ],
      "name": "deltaChimpz",
      "outputs": [
        {
          "internalType": "string",
          "name": "",
          "type": "string"
        }
      ],
      "stateMutability": "view",
      "type": "function",
      "constant": true
    },
    {
      "inputs": [],
      "name": "name",
      "outputs": [
        {
          "internalType": "string",
          "name": "",
          "type": "string"
        }
      ],
      "stateMutability": "view",
      "type": "function",
      "constant": true
    },
    {
      "inputs": [
        {
          "internalType": "uint256",
          "name": "_tokenId",
          "type": "uint256"
        }
      ],
      "name": "ownerOf",
      "outputs": [
        {
          "internalType": "address",
          "name": "",
          "type": "address"
        }
      ],
      "stateMutability": "view",
      "type": "function",
      "constant": true
    },
    {
      "inputs": [],
      "name": "symbol",
      "outputs": [
        {
          "internalType": "string",
          "name": "",
          "type": "string"
        }
      ],
      "stateMutability": "view",
      "type": "function",
      "constant": true
    },
    {
      "inputs": [
        {
          "internalType": "uint256",
          "name": "index",
          "type": "uint256"
        }
      ],
      "name": "tokenByIndex",
      "outputs": [
        {
          "internalType": "uint256",
          "name": "",
          "type": "uint256"
        }
      ],
      "stateMutability": "view",
      "type": "function",
      "constant": true
    },
    {
      "inputs": [
        {
          "internalType": "address",
          "name": "owner",
          "type": "address"
        },
        {
          "internalType": "uint256",
          "name": "index",
          "type": "uint256"
        }
      ],
      "name": "tokenOfOwnerByIndex",
      "outputs": [
        {
          "internalType": "uint256",
          "name": "",
          "type": "uint256"
        }
      ],
      "stateMutability": "view",
      "type": "function",
      "constant": true
    },
    {
      "inputs": [],
      "name": "totalSupply",
      "outputs": [
        {
          "internalType": "uint256",
          "name": "",
          "type": "uint256"
        }
      ],
      "stateMutability": "view",
      "type": "function",
      "constant": true
    },
    {
      "inputs": [
        {
          "internalType": "address",
          "name": "_from",
          "type": "address"
        },
        {
          "internalType": "address",
          "name": "_to",
          "type": "address"
        },
        {
          "internalType": "uint256",
          "name": "_tokenId",
          "type": "uint256"
        }
      ],
      "name": "transferFrom",
      "outputs": [],
      "stateMutability": "nonpayable",
      "type": "function"
    },
    {
      "inputs": [
        {
          "internalType": "string",
          "name": "_DeltaChimp",
          "type": "string"
        }
      ],
      "name": "mint",
      "outputs": [],
      "stateMutability": "nonpayable",
      "type": "function"
    }
  ],
  "bytecode": "0x60806040523480156200001157600080fd5b506040518060400160405280600a81526020017f44656c74614368696d70000000000000000000000000000000000000000000008152506040518060400160405280600781526020017f444348494d505a000000000000000000000000000000000000000000000000008152508181816000908162000091919062000328565b508060019081620000a3919062000328565b50505050506200040f565b600081519050919050565b7f4e487b7100000000000000000000000000000000000000000000000000000000600052604160045260246000fd5b7f4e487b7100000000000000000000000000000000000000000000000000000000600052602260045260246000fd5b600060028204905060018216806200013057607f821691505b602082108103620001465762000145620000e8565b5b50919050565b60008190508160005260206000209050919050565b60006020601f8301049050919050565b600082821b905092915050565b600060088302620001b07fffffffffffffffffffffffffffffffffffffffffffffffffffffffffffffffff8262000171565b620001bc868362000171565b95508019841693508086168417925050509392505050565b6000819050919050565b6000819050919050565b60006200020962000203620001fd84620001d4565b620001de565b620001d4565b9050919050565b6000819050919050565b6200022583620001e8565b6200023d620002348262000210565b8484546200017e565b825550505050565b600090565b6200025462000245565b620002618184846200021a565b505050565b5b8181101562000289576200027d6000826200024a565b60018101905062000267565b5050565b601f821115620002d857620002a2816200014c565b620002ad8462000161565b81016020851015620002bd578190505b620002d5620002cc8562000161565b83018262000266565b50505b505050565b600082821c905092915050565b6000620002fd60001984600802620002dd565b1980831691505092915050565b6000620003188383620002ea565b9150826002028217905092915050565b6200033382620000ae565b67ffffffffffffffff8111156200034f576200034e620000b9565b5b6200035b825462000117565b620003688282856200028d565b600060209050601f831160018114620003a057600084156200038b578287015190505b6200039785826200030a565b86555062000407565b601f198416620003b0866200014c565b60005b82811015620003da57848901518255600182019150602085019450602081019050620003b3565b86831015620003fa5784890151620003f6601f891682620002ea565b8355505b6001600288020188555050505b505050505050565b611955806200041f6000396000f3fe608060405234801561001057600080fd5b506004361061009e5760003560e01c80634f6ccce7116100665780634f6ccce71461015b5780636352211e1461018b57806395d89b41146101bb578063d85d3d27146101d9578063e8c2f9db146101f55761009e565b806306fdde03146100a357806318160ddd146100c157806323b872dd146100df5780632f745c59146100fb5780633d64125b1461012b575b600080fd5b6100ab610225565b6040516100b89190610dcd565b60405180910390f35b6100c96102b7565b6040516100d69190610e08565b60405180910390f35b6100f960048036038101906100f49190610ec1565b6102c4565b005b61011560048036038101906101109190610f14565b6102d4565b6040516101229190610e08565b60405180910390f35b61014560048036038101906101409190610f54565b610384565b6040516101529190610e08565b60405180910390f35b61017560048036038101906101709190610f81565b61043b565b6040516101829190610e08565b60405180910390f35b6101a560048036038101906101a09190610f81565b6104ac565b6040516101b29190610fbd565b60405180910390f35b6101c361055d565b6040516101d09190610dcd565b60405180910390f35b6101f360048036038101906101ee919061110d565b6105ef565b005b61020f600480360381019061020a9190610f81565b6106eb565b60405161021c9190610dcd565b60405180910390f35b60606000805461023490611185565b80601f016020809104026020016040519081016040528092919081815260200182805461026090611185565b80156102ad5780601f10610282576101008083540402835291602001916102ad565b820191906000526020600020905b81548152906001019060200180831161029057829003601f168201915b5050505050905090565b6000600580549050905090565b6102cf838383610797565b505050565b60006102df83610384565b8210610320576040517f08c379a000000000000000000000000000000000000000000000000000000000815260040161031790611202565b60405180910390fd5b600760008473ffffffffffffffffffffffffffffffffffffffff1673ffffffffffffffffffffffffffffffffffffffff168152602001908152602001600020828154811061037157610370611222565b5b9060005260206000200154905092915050565b60008073ffffffffffffffffffffffffffffffffffffffff168273ffffffffffffffffffffffffffffffffffffffff16036103f4576040517f08c379a00000000000000000000000000000000000000000000000000000000081526004016103eb9061129d565b60405180910390fd5b600360008373ffffffffffffffffffffffffffffffffffffffff1673ffffffffffffffffffffffffffffffffffffffff168152602001908152602001600020549050919050565b60006104456102b7565b8210610486576040517f08c379a000000000000000000000000000000000000000000000000000000000815260040161047d90611309565b60405180910390fd5b6005828154811061049a57610499611222565b5b90600052602060002001549050919050565b6000806002600084815260200190815260200160002060009054906101000a900473ffffffffffffffffffffffffffffffffffffffff169050600073ffffffffffffffffffffffffffffffffffffffff168173ffffffffffffffffffffffffffffffffffffffff1603610554576040517f08c379a000000000000000000000000000000000000000000000000000000000815260040161054b9061129d565b60405180910390fd5b80915050919050565b60606001805461056c90611185565b80601f016020809104026020016040519081016040528092919081815260200182805461059890611185565b80156105e55780601f106105ba576101008083540402835291602001916105e5565b820191906000526020600020905b8154815290600101906020018083116105c857829003601f168201915b5050505050905090565b600a816040516105ff9190611365565b908152602001604051809103902060009054906101000a900460ff161561065b576040517f08c379a0000000000000000000000000000000000000000000000000000000008152600401610652906113c8565b60405180910390fd5b60098190806001815401808255809150506001900390600052602060002001600090919091909150908161068f9190611594565b50600060016009805490506106a49190611695565b90506106b033826109dc565b6001600a836040516106c29190611365565b908152602001604051809103902060006101000a81548160ff0219169083151502179055505050565b600981815481106106fb57600080fd5b90600052602060002001600091509050805461071690611185565b80601f016020809104026020016040519081016040528092919081815260200182805461074290611185565b801561078f5780601f106107645761010080835404028352916020019161078f565b820191906000526020600020905b81548152906001019060200180831161077257829003601f168201915b505050505081565b600073ffffffffffffffffffffffffffffffffffffffff168273ffffffffffffffffffffffffffffffffffffffff1603610806576040517f08c379a00000000000000000000000000000000000000000000000000000000081526004016107fd9061173b565b60405180910390fd5b8273ffffffffffffffffffffffffffffffffffffffff16610826826104ac565b73ffffffffffffffffffffffffffffffffffffffff161461087c576040517f08c379a0000000000000000000000000000000000000000000000000000000008152600401610873906117cd565b60405180910390fd5b6001600360008573ffffffffffffffffffffffffffffffffffffffff1673ffffffffffffffffffffffffffffffffffffffff16815260200190815260200160002060008282546108cc9190611695565b925050819055506001600360008473ffffffffffffffffffffffffffffffffffffffff1673ffffffffffffffffffffffffffffffffffffffff168152602001908152602001600020600082825461092391906117ed565b92505081905550816002600083815260200190815260200160002060006101000a81548173ffffffffffffffffffffffffffffffffffffffff021916908373ffffffffffffffffffffffffffffffffffffffff160217905550808273ffffffffffffffffffffffffffffffffffffffff168473ffffffffffffffffffffffffffffffffffffffff167fddf252ad1be2c89b69c2b068fc378daa952ba7f163c4a11628f55a4df523b3ef60405160405180910390a4505050565b6109e682826109fd565b6109ef81610bbe565b6109f98282610c07565b5050565b600073ffffffffffffffffffffffffffffffffffffffff168273ffffffffffffffffffffffffffffffffffffffff1603610a6c576040517f08c379a0000000000000000000000000000000000000000000000000000000008152600401610a6390611893565b60405180910390fd5b610a7581610ccb565b15610ab5576040517f08c379a0000000000000000000000000000000000000000000000000000000008152600401610aac906118ff565b60405180910390fd5b816002600083815260200190815260200160002060006101000a81548173ffffffffffffffffffffffffffffffffffffffff021916908373ffffffffffffffffffffffffffffffffffffffff1602179055506001600360008473ffffffffffffffffffffffffffffffffffffffff1673ffffffffffffffffffffffffffffffffffffffff1681526020019081526020016000206000828254610b5791906117ed565b92505081905550808273ffffffffffffffffffffffffffffffffffffffff16600073ffffffffffffffffffffffffffffffffffffffff167fddf252ad1be2c89b69c2b068fc378daa952ba7f163c4a11628f55a4df523b3ef60405160405180910390a45050565b6005805490506006600083815260200190815260200160002081905550600581908060018154018082558091505060019003906000526020600020016000909190919091505550565b600760008373ffffffffffffffffffffffffffffffffffffffff1673ffffffffffffffffffffffffffffffffffffffff168152602001908152602001600020805490506008600083815260200190815260200160002081905550600760008373ffffffffffffffffffffffffffffffffffffffff1673ffffffffffffffffffffffffffffffffffffffff1681526020019081526020016000208190806001815401808255809150506001900390600052602060002001600090919091909150555050565b6000806002600084815260200190815260200160002060009054906101000a900473ffffffffffffffffffffffffffffffffffffffff169050600073ffffffffffffffffffffffffffffffffffffffff168173ffffffffffffffffffffffffffffffffffffffff161415915050919050565b600081519050919050565b600082825260208201905092915050565b60005b83811015610d77578082015181840152602081019050610d5c565b60008484015250505050565b6000601f19601f8301169050919050565b6000610d9f82610d3d565b610da98185610d48565b9350610db9818560208601610d59565b610dc281610d83565b840191505092915050565b60006020820190508181036000830152610de78184610d94565b905092915050565b6000819050919050565b610e0281610def565b82525050565b6000602082019050610e1d6000830184610df9565b92915050565b6000604051905090565b600080fd5b600080fd5b600073ffffffffffffffffffffffffffffffffffffffff82169050919050565b6000610e6282610e37565b9050919050565b610e7281610e57565b8114610e7d57600080fd5b50565b600081359050610e8f81610e69565b92915050565b610e9e81610def565b8114610ea957600080fd5b50565b600081359050610ebb81610e95565b92915050565b600080600060608486031215610eda57610ed9610e2d565b5b6000610ee886828701610e80565b9350506020610ef986828701610e80565b9250506040610f0a86828701610eac565b9150509250925092565b60008060408385031215610f2b57610f2a610e2d565b5b6000610f3985828601610e80565b9250506020610f4a85828601610eac565b9150509250929050565b600060208284031215610f6a57610f69610e2d565b5b6000610f7884828501610e80565b91505092915050565b600060208284031215610f9757610f96610e2d565b5b6000610fa584828501610eac565b91505092915050565b610fb781610e57565b82525050565b6000602082019050610fd26000830184610fae565b92915050565b600080fd5b600080fd5b7f4e487b7100000000000000000000000000000000000000000000000000000000600052604160045260246000fd5b61101a82610d83565b810181811067ffffffffffffffff8211171561103957611038610fe2565b5b80604052505050565b600061104c610e23565b90506110588282611011565b919050565b600067ffffffffffffffff82111561107857611077610fe2565b5b61108182610d83565b9050602081019050919050565b82818337600083830152505050565b60006110b06110ab8461105d565b611042565b9050828152602081018484840111156110cc576110cb610fdd565b5b6110d784828561108e565b509392505050565b600082601f8301126110f4576110f3610fd8565b5b813561110484826020860161109d565b91505092915050565b60006020828403121561112357611122610e2d565b5b600082013567ffffffffffffffff81111561114157611140610e32565b5b61114d848285016110df565b91505092915050565b7f4e487b7100000000000000000000000000000000000000000000000000000000600052602260045260246000fd5b6000600282049050600182168061119d57607f821691505b6020821081036111b0576111af611156565b5b50919050565b7f6f776e657220696e646578206973206f7574206f6620626f756e640000000000600082015250565b60006111ec601b83610d48565b91506111f7826111b6565b602082019050919050565b6000602082019050818103600083015261121b816111df565b9050919050565b7f4e487b7100000000000000000000000000000000000000000000000000000000600052603260045260246000fd5b7f6f776e657220717565727920666f72206e6f6e2d6578697374656e7400000000600082015250565b6000611287601c83610d48565b915061129282611251565b602082019050919050565b600060208201905081810360008301526112b68161127a565b9050919050565b7f676c6f62616c20696e646578206973206f7574206f6620626f756e6400000000600082015250565b60006112f3601c83610d48565b91506112fe826112bd565b602082019050919050565b60006020820190508181036000830152611322816112e6565b9050919050565b600081905092915050565b600061133f82610d3d565b6113498185611329565b9350611359818560208601610d59565b80840191505092915050565b60006113718284611334565b915081905092915050565b7f4572726f72205f44656c74614368696d7020616c726561647920657869737473600082015250565b60006113b2602083610d48565b91506113bd8261137c565b602082019050919050565b600060208201905081810360008301526113e1816113a5565b9050919050565b60008190508160005260206000209050919050565b60006020601f8301049050919050565b600082821b905092915050565b60006008830261144a7fffffffffffffffffffffffffffffffffffffffffffffffffffffffffffffffff8261140d565b611454868361140d565b95508019841693508086168417925050509392505050565b6000819050919050565b600061149161148c61148784610def565b61146c565b610def565b9050919050565b6000819050919050565b6114ab83611476565b6114bf6114b782611498565b84845461141a565b825550505050565b600090565b6114d46114c7565b6114df8184846114a2565b505050565b5b81811015611503576114f86000826114cc565b6001810190506114e5565b5050565b601f82111561154857611519816113e8565b611522846113fd565b81016020851015611531578190505b61154561153d856113fd565b8301826114e4565b50505b505050565b600082821c905092915050565b600061156b6000198460080261154d565b1980831691505092915050565b6000611584838361155a565b9150826002028217905092915050565b61159d82610d3d565b67ffffffffffffffff8111156115b6576115b5610fe2565b5b6115c08254611185565b6115cb828285611507565b600060209050601f8311600181146115fe57600084156115ec578287015190505b6115f68582611578565b86555061165e565b601f19841661160c866113e8565b60005b828110156116345784890151825560018201915060208501945060208101905061160f565b86831015611651578489015161164d601f89168261155a565b8355505b6001600288020188555050505b505050505050565b7f4e487b7100000000000000000000000000000000000000000000000000000000600052601160045260246000fd5b60006116a082610def565b91506116ab83610def565b92508282039050818111156116c3576116c2611666565b5b92915050565b7f4572726f72202d20455243373231205472616e7366657220746f20746865207a60008201527f65726f2061646472657373000000000000000000000000000000000000000000602082015250565b6000611725602b83610d48565b9150611730826116c9565b604082019050919050565b6000602082019050818103600083015261175481611718565b9050919050565b7f547279696e6720746f207472616e73666572206120746f6b656e20746865206160008201527f64647265737320646f6573206e6f74206f776e00000000000000000000000000602082015250565b60006117b7603383610d48565b91506117c28261175b565b604082019050919050565b600060208201905081810360008301526117e6816117aa565b9050919050565b60006117f882610def565b915061180383610def565b925082820190508082111561181b5761181a611666565b5b92915050565b7f4552433732313a206d696e74696e6720746f20746865207a65726f206164647260008201527f6573730000000000000000000000000000000000000000000000000000000000602082015250565b600061187d602383610d48565b915061188882611821565b604082019050919050565b600060208201905081810360008301526118ac81611870565b9050919050565b7f4552433732313a20746f6b656e20616c7265616479206d696e74656400000000600082015250565b60006118e9601c83610d48565b91506118f4826118b3565b602082019050919050565b60006020820190508181036000830152611918816118dc565b905091905056fea26469706673582212209f0ee38324d995c4fb27a6b56ac68d4f022017393d9a42d63cc706814345d42664736f6c63430008130033",
  "immutableReferences": {},
  "source": "//SPDX-License-Identifier:MIT\r\npragma solidity ^0.8.0;\r\n\r\nimport './ERC721Connector.sol';\r\n\r\ncontract DeltaChimp is ERC721Connector {\r\n// How to run a minting function - call the minting function for market\r\n//place specific for KBz. \r\n//By creating array to store nfts i.e KBz\r\n      string[] public deltaChimpz;\r\n\r\n      mapping(string => bool) _deltaChimpzExists;\r\n\r\n      function mint(string memory _DeltaChimp) public {//this function is caled mint, for minting KBz\r\n        // this is deprecated - uint _id = deltaChimpz.push(_DeltaChimp);\r\n            require(!_deltaChimpzExists[_DeltaChimp],\r\n            'Error _DeltaChimp already exists');\r\n            deltaChimpz.push(_DeltaChimp);\r\n            uint _id = deltaChimpz.length - 1;\r\n\r\n        //.push no longer returns the length but a ref to the added element \r\n       // uint _id = deltaChimpz.push(_DeltaChimp);      for tracking KBz\r\n\r\n            _mint(msg.sender, _id);//finally to run we have to use _mint(it will take 2 arguments -address(who is minting) &token id)\r\n            _deltaChimpzExists[_DeltaChimp] = true;\r\n\r\n      }\r\n\r\n        // initialize this contract to inherit\r\n        // name and symbol from erc721metadata so that\r\n        // the name is DeltaChimp and the symbol is DCHIMPZ\r\n      constructor() ERC721Connector ('DeltaChimp', 'DCHIMPZ')\r\n      {\r\n                \r\n      }\r\n}           ",
  "sourcePath": "C:\\Users\\krkve\\Downloads\\nft-marketplace-starter-kit-main\\nft-marketplace-reference\\src\\contracts\\DeltaChimpz.sol",
  "compiler": {
    "name": "solc",
    "version": "0.8.19+commit.7dd6d404.Emscripten.clang"
  },
  "schemaVersion": "3.4.10",
  "updatedAt": "2023-03-28T00:08:30.677Z",
  "networkType": "ethereum",
  "devdoc": {
    "kind": "dev",
    "methods": {},
    "version": 1
  },
  "userdoc": {
    "kind": "user",
    "methods": {},
    "version": 1
  }
}