{
  "contractName": "ERC721",
  "abi": [
    {
      "anonymous": false,
      "inputs": [
        {
          "indexed": true,
          "internalType": "address",
          "name": "from",
          "type": "address"
        },
        {
          "indexed": true,
          "internalType": "address",
          "name": "to",
          "type": "address"
        },
        {
          "indexed": true,
          "internalType": "uint256",
          "name": "tokenId",
          "type": "uint256"
        }
      ],
      "name": "Transfer",
      "type": "event"
    },
    {
      "inputs": [
        {
          "internalType": "address",
          "name": "_owner",
          "type": "address"
        }
      ],
      "name": "balanceof",
      "outputs": [
        {
          "internalType": "uint256",
          "name": "",
          "type": "uint256"
        }
      ],
      "stateMutability": "view",
      "type": "function"
    },
    {
      "inputs": [
        {
          "internalType": "uint256",
          "name": "_tokenId",
          "type": "uint256"
        }
      ],
      "name": "ownerOf",
      "outputs": [
        {
          "internalType": "address",
          "name": "",
          "type": "address"
        }
      ],
      "stateMutability": "view",
      "type": "function"
    },
    {
      "inputs": [
        {
          "internalType": "address",
          "name": "_from",
          "type": "address"
        },
        {
          "internalType": "address",
          "name": "_to",
          "type": "address"
        },
        {
          "internalType": "uint256",
          "name": "_tokenId",
          "type": "uint256"
        }
      ],
      "name": "transferFrom",
      "outputs": [],
      "stateMutability": "nonpayable",
      "type": "function"
    }
  ],
  "bytecode": "0x608060405234801561001057600080fd5b50610883806100206000396000f3fe608060405234801561001057600080fd5b50600436106100415760003560e01c806323b872dd146100465780633d64125b146100625780636352211e14610092575b600080fd5b610060600480360381019061005b9190610514565b6100c2565b005b61007c60048036038101906100779190610567565b6100d2565b60405161008991906105a3565b60405180910390f35b6100ac60048036038101906100a791906105be565b610189565b6040516100b991906105fa565b60405180910390f35b6100cd838383610239565b505050565b60008073ffffffffffffffffffffffffffffffffffffffff168273ffffffffffffffffffffffffffffffffffffffff1603610142576040517f08c379a000000000000000000000000000000000000000000000000000000000815260040161013990610672565b60405180910390fd5b600160008373ffffffffffffffffffffffffffffffffffffffff1673ffffffffffffffffffffffffffffffffffffffff168152602001908152602001600020549050919050565b60008060008084815260200190815260200160002060009054906101000a900473ffffffffffffffffffffffffffffffffffffffff169050600073ffffffffffffffffffffffffffffffffffffffff168173ffffffffffffffffffffffffffffffffffffffff1603610230576040517f08c379a000000000000000000000000000000000000000000000000000000000815260040161022790610672565b60405180910390fd5b80915050919050565b600073ffffffffffffffffffffffffffffffffffffffff168273ffffffffffffffffffffffffffffffffffffffff16036102a8576040517f08c379a000000000000000000000000000000000000000000000000000000000815260040161029f90610704565b60405180910390fd5b8273ffffffffffffffffffffffffffffffffffffffff166102c882610189565b73ffffffffffffffffffffffffffffffffffffffff161461031e576040517f08c379a000000000000000000000000000000000000000000000000000000000815260040161031590610796565b60405180910390fd5b60018060008573ffffffffffffffffffffffffffffffffffffffff1673ffffffffffffffffffffffffffffffffffffffff168152602001908152602001600020600082825461036d91906107e5565b9250508190555060018060008473ffffffffffffffffffffffffffffffffffffffff1673ffffffffffffffffffffffffffffffffffffffff16815260200190815260200160002060008282546103c39190610819565b925050819055508160008083815260200190815260200160002060006101000a81548173ffffffffffffffffffffffffffffffffffffffff021916908373ffffffffffffffffffffffffffffffffffffffff160217905550808273ffffffffffffffffffffffffffffffffffffffff168473ffffffffffffffffffffffffffffffffffffffff167fddf252ad1be2c89b69c2b068fc378daa952ba7f163c4a11628f55a4df523b3ef60405160405180910390a4505050565b600080fd5b600073ffffffffffffffffffffffffffffffffffffffff82169050919050565b60006104ab82610480565b9050919050565b6104bb816104a0565b81146104c657600080fd5b50565b6000813590506104d8816104b2565b92915050565b6000819050919050565b6104f1816104de565b81146104fc57600080fd5b50565b60008135905061050e816104e8565b92915050565b60008060006060848603121561052d5761052c61047b565b5b600061053b868287016104c9565b935050602061054c868287016104c9565b925050604061055d868287016104ff565b9150509250925092565b60006020828403121561057d5761057c61047b565b5b600061058b848285016104c9565b91505092915050565b61059d816104de565b82525050565b60006020820190506105b86000830184610594565b92915050565b6000602082840312156105d4576105d361047b565b5b60006105e2848285016104ff565b91505092915050565b6105f4816104a0565b82525050565b600060208201905061060f60008301846105eb565b92915050565b600082825260208201905092915050565b7f6f776e657220717565727920666f72206e6f6e2d6578697374656e7400000000600082015250565b600061065c601c83610615565b915061066782610626565b602082019050919050565b6000602082019050818103600083015261068b8161064f565b9050919050565b7f4572726f72202d20455243373231205472616e7366657220746f20746865207a60008201527f65726f2061646472657373000000000000000000000000000000000000000000602082015250565b60006106ee602b83610615565b91506106f982610692565b604082019050919050565b6000602082019050818103600083015261071d816106e1565b9050919050565b7f547279696e6720746f207472616e73666572206120746f6b656e20746865206160008201527f64647265737320646f6573206e6f74206f776e00000000000000000000000000602082015250565b6000610780603383610615565b915061078b82610724565b604082019050919050565b600060208201905081810360008301526107af81610773565b9050919050565b7f4e487b7100000000000000000000000000000000000000000000000000000000600052601160045260246000fd5b60006107f0826104de565b91506107fb836104de565b9250828203905081811115610813576108126107b6565b5b92915050565b6000610824826104de565b915061082f836104de565b9250828201905080821115610847576108466107b6565b5b9291505056fea26469706673582212204881700c73bf90baf0163c451327524ce82d95da9e9ebbfd17ea28efa34e9f9b64736f6c63430008130033",
  "immutableReferences": {},
  "source": "    //SPDX-License-Identifier: MIT\r\n    pragma solidity ^0.8.0;\r\n\r\ncontract ERC721{\r\n\r\n    event Transfer(address indexed from,  address indexed to, uint256 indexed tokenId);\r\n\r\n    /*\r\n    THE MINTING NFT FUNCTIONS\r\n    building out the minting function:\r\n    a.nft to point to a address(track of the address who is minting the NFT'S which address)\r\n    b.keep track of the token ids(each nft's is a token right)\r\n    c.keep track of token owner addresses to token ids(we have to keep track of whose got which nft's \r\n    somebody makes nfts should belong to them)\r\n    d.keep track of how many tokens an owner address has (what somebody makes multiple NFT's    )   \r\n    e.create an event that emits a transfer log - contract address, where it is being minted to, the id (logs of info that tracks)\r\n\r\n    */ \r\n    //mapping in solidity creats a  hash table of key pair values\r\n\r\n    //mapping from token id to the owner\r\n     mapping(uint256 => address) private _tokenOwner;\r\n     // mapping from owner to number of owned tokens\r\n     mapping(address => uint256) private _OwnedTokensCount;\r\n\r\n     //mapping from token id to approved addresses\r\n     mapping(uint256 => address) private _tokenApprovals;\r\n// @notice count all NFTs assigned to an owner\r\n//@dev NFTS assigned to the zero are considered invalid, and this\r\n//function throws for queries about the zero address.\r\n//@param _owner An address for whom to query the balance\r\n//return the number of NFTs owned by '_owner' possibily zero \r\n\r\n      function balanceof(address _owner) public view returns (uint256){\r\n        require(_owner != address(0),'owner query for non-existent');\r\n        return _OwnedTokensCount[_owner];\r\n        }\r\n     // @notice Find the owner of an NFT\r\n    // @dev NFTs assigned to zero address are considered invalid, and queries\r\n    // about them do throw.\r\n    // @param _tokenId The identifier for an NFT\r\n    // @return The address of the owner of the NFT\r\n      function ownerOf(uint256 _tokenId)public view returns(address){\r\n         address owner = _tokenOwner[_tokenId];\r\n         require(owner != address(0),'owner query for non-existent');\r\n        return owner;\r\n      }\r\n\r\n/*\r\n//EXERCISE:\r\n1. Write a function called _mint that takes two arguments an address called to and an integer tokenId.\r\n2. add internal visibility to the signature\r\n3. set the   tokenOwner of the  tokenId to the address argument 'to'.\r\n4. increase the owner token count by 1 each time the function is called\r\nBONUS:\r\nCreate two requirements -\r\n5. Require that the mint address isn't 0\r\n6. Require that the  token has not already been minted\r\n*/\r\n    function _exists(uint256 tokenId) internal view returns(bool){\r\n        // setting the address of nft owner to check the mapping\r\n        //of the address from tokenOwner at the tokenId\r\n        address owner = _tokenOwner[tokenId];\r\n        // return truthiness the address is not zero\r\n        return owner  != address(0);   \r\n    }   \r\n\r\n    function _mint(address to, uint256 tokenId) internal virtual{\r\n        //require that the address isn't zero\r\n        require(to != address(0), 'ERC721: minting to the zero address');\r\n        //requires that the token does not already exist\r\n        require(!_exists(tokenId), 'ERC721: token already minted');\r\n        // we are adding  a new address with a token id for minting\r\n         _tokenOwner[tokenId] = to; \r\n         // keeping track of each address that is minting and adding one to the count\r\n         _OwnedTokensCount[to] += 1;\r\n        emit Transfer(address(0), to,  tokenId);\r\n\r\n    }\r\n\r\n    // @notice Change or reaffirm the approved address for an NFT\r\n    // @dev The zero address indicates there is no approved address.\r\n    //  Throws unless `msg.sender` is the current NFT owner, or an authorized\r\n    //  operator of the current owner.\r\n    //@param _approved The new approved NFT controller\r\n    // @param _tokenId The NFT to approve\r\n\r\n     function _transferFrom(address _from, address _to, uint256 _tokenId) internal {\r\n      require (_to != address(0),'Error - ERC721 Transfer to the zero address');\r\n      require(ownerOf(_tokenId) == _from, 'Trying to transfer a token the address does not own');\r\n      _OwnedTokensCount[_from] -= 1;\r\n      _OwnedTokensCount[_to] += 1;\r\n      _tokenOwner[_tokenId] = _to;\r\n       emit Transfer(_from, _to,  _tokenId);\r\n     }\r\n      function transferFrom(address _from, address _to, uint256 _tokenId) public{\r\n        _transferFrom( _from, _to, _tokenId);\r\n      \r\n      }\r\n}\r\n\r\n",
  "sourcePath": "C:\\Users\\krkve\\Downloads\\nft-marketplace-starter-kit-main\\nft-marketplace-reference\\src\\contracts\\ERC721.sol",
  "compiler": {
    "name": "solc",
    "version": "0.8.19+commit.7dd6d404.Emscripten.clang"
  },
  "schemaVersion": "3.4.10",
  "updatedAt": "2023-03-28T00:38:10.313Z",
  "devdoc": {
    "kind": "dev",
    "methods": {},
    "version": 1
  },
  "userdoc": {
    "kind": "user",
    "methods": {},
    "version": 1
  }
}