{
  "contractName": "ERC721Enumerable",
  "abi": [
    {
      "anonymous": false,
      "inputs": [
        {
          "indexed": true,
          "internalType": "address",
          "name": "from",
          "type": "address"
        },
        {
          "indexed": true,
          "internalType": "address",
          "name": "to",
          "type": "address"
        },
        {
          "indexed": true,
          "internalType": "uint256",
          "name": "tokenId",
          "type": "uint256"
        }
      ],
      "name": "Transfer",
      "type": "event"
    },
    {
      "inputs": [
        {
          "internalType": "address",
          "name": "_owner",
          "type": "address"
        }
      ],
      "name": "balanceof",
      "outputs": [
        {
          "internalType": "uint256",
          "name": "",
          "type": "uint256"
        }
      ],
      "stateMutability": "view",
      "type": "function"
    },
    {
      "inputs": [
        {
          "internalType": "uint256",
          "name": "_tokenId",
          "type": "uint256"
        }
      ],
      "name": "ownerOf",
      "outputs": [
        {
          "internalType": "address",
          "name": "",
          "type": "address"
        }
      ],
      "stateMutability": "view",
      "type": "function"
    },
    {
      "inputs": [
        {
          "internalType": "address",
          "name": "_from",
          "type": "address"
        },
        {
          "internalType": "address",
          "name": "_to",
          "type": "address"
        },
        {
          "internalType": "uint256",
          "name": "_tokenId",
          "type": "uint256"
        }
      ],
      "name": "transferFrom",
      "outputs": [],
      "stateMutability": "nonpayable",
      "type": "function"
    },
    {
      "inputs": [
        {
          "internalType": "uint256",
          "name": "index",
          "type": "uint256"
        }
      ],
      "name": "tokenByIndex",
      "outputs": [
        {
          "internalType": "uint256",
          "name": "",
          "type": "uint256"
        }
      ],
      "stateMutability": "view",
      "type": "function"
    },
    {
      "inputs": [
        {
          "internalType": "address",
          "name": "owner",
          "type": "address"
        },
        {
          "internalType": "uint256",
          "name": "index",
          "type": "uint256"
        }
      ],
      "name": "tokenOfOwnerByIndex",
      "outputs": [
        {
          "internalType": "uint256",
          "name": "",
          "type": "uint256"
        }
      ],
      "stateMutability": "view",
      "type": "function"
    },
    {
      "inputs": [],
      "name": "totalSupply",
      "outputs": [
        {
          "internalType": "uint256",
          "name": "",
          "type": "uint256"
        }
      ],
      "stateMutability": "view",
      "type": "function"
    }
  ],
  "bytecode": "0x608060405234801561001057600080fd5b50610b97806100206000396000f3fe608060405234801561001057600080fd5b50600436106100625760003560e01c806318160ddd1461006757806323b872dd146100855780632f745c59146100a15780633d64125b146100d15780634f6ccce7146101015780636352211e14610131575b600080fd5b61006f610161565b60405161007c9190610661565b60405180910390f35b61009f600480360381019061009a919061070b565b61016e565b005b6100bb60048036038101906100b6919061075e565b61017e565b6040516100c89190610661565b60405180910390f35b6100eb60048036038101906100e6919061079e565b61022e565b6040516100f89190610661565b60405180910390f35b61011b600480360381019061011691906107cb565b6102e5565b6040516101289190610661565b60405180910390f35b61014b600480360381019061014691906107cb565b610356565b6040516101589190610807565b60405180910390f35b6000600380549050905090565b610179838383610406565b505050565b60006101898361022e565b82106101ca576040517f08c379a00000000000000000000000000000000000000000000000000000000081526004016101c19061087f565b60405180910390fd5b600560008473ffffffffffffffffffffffffffffffffffffffff1673ffffffffffffffffffffffffffffffffffffffff168152602001908152602001600020828154811061021b5761021a61089f565b5b9060005260206000200154905092915050565b60008073ffffffffffffffffffffffffffffffffffffffff168273ffffffffffffffffffffffffffffffffffffffff160361029e576040517f08c379a00000000000000000000000000000000000000000000000000000000081526004016102959061091a565b60405180910390fd5b600160008373ffffffffffffffffffffffffffffffffffffffff1673ffffffffffffffffffffffffffffffffffffffff168152602001908152602001600020549050919050565b60006102ef610161565b8210610330576040517f08c379a000000000000000000000000000000000000000000000000000000000815260040161032790610986565b60405180910390fd5b600382815481106103445761034361089f565b5b90600052602060002001549050919050565b60008060008084815260200190815260200160002060009054906101000a900473ffffffffffffffffffffffffffffffffffffffff169050600073ffffffffffffffffffffffffffffffffffffffff168173ffffffffffffffffffffffffffffffffffffffff16036103fd576040517f08c379a00000000000000000000000000000000000000000000000000000000081526004016103f49061091a565b60405180910390fd5b80915050919050565b600073ffffffffffffffffffffffffffffffffffffffff168273ffffffffffffffffffffffffffffffffffffffff1603610475576040517f08c379a000000000000000000000000000000000000000000000000000000000815260040161046c90610a18565b60405180910390fd5b8273ffffffffffffffffffffffffffffffffffffffff1661049582610356565b73ffffffffffffffffffffffffffffffffffffffff16146104eb576040517f08c379a00000000000000000000000000000000000000000000000000000000081526004016104e290610aaa565b60405180910390fd5b60018060008573ffffffffffffffffffffffffffffffffffffffff1673ffffffffffffffffffffffffffffffffffffffff168152602001908152602001600020600082825461053a9190610af9565b9250508190555060018060008473ffffffffffffffffffffffffffffffffffffffff1673ffffffffffffffffffffffffffffffffffffffff16815260200190815260200160002060008282546105909190610b2d565b925050819055508160008083815260200190815260200160002060006101000a81548173ffffffffffffffffffffffffffffffffffffffff021916908373ffffffffffffffffffffffffffffffffffffffff160217905550808273ffffffffffffffffffffffffffffffffffffffff168473ffffffffffffffffffffffffffffffffffffffff167fddf252ad1be2c89b69c2b068fc378daa952ba7f163c4a11628f55a4df523b3ef60405160405180910390a4505050565b6000819050919050565b61065b81610648565b82525050565b60006020820190506106766000830184610652565b92915050565b600080fd5b600073ffffffffffffffffffffffffffffffffffffffff82169050919050565b60006106ac82610681565b9050919050565b6106bc816106a1565b81146106c757600080fd5b50565b6000813590506106d9816106b3565b92915050565b6106e881610648565b81146106f357600080fd5b50565b600081359050610705816106df565b92915050565b6000806000606084860312156107245761072361067c565b5b6000610732868287016106ca565b9350506020610743868287016106ca565b9250506040610754868287016106f6565b9150509250925092565b600080604083850312156107755761077461067c565b5b6000610783858286016106ca565b9250506020610794858286016106f6565b9150509250929050565b6000602082840312156107b4576107b361067c565b5b60006107c2848285016106ca565b91505092915050565b6000602082840312156107e1576107e061067c565b5b60006107ef848285016106f6565b91505092915050565b610801816106a1565b82525050565b600060208201905061081c60008301846107f8565b92915050565b600082825260208201905092915050565b7f6f776e657220696e646578206973206f7574206f6620626f756e640000000000600082015250565b6000610869601b83610822565b915061087482610833565b602082019050919050565b600060208201905081810360008301526108988161085c565b9050919050565b7f4e487b7100000000000000000000000000000000000000000000000000000000600052603260045260246000fd5b7f6f776e657220717565727920666f72206e6f6e2d6578697374656e7400000000600082015250565b6000610904601c83610822565b915061090f826108ce565b602082019050919050565b60006020820190508181036000830152610933816108f7565b9050919050565b7f676c6f62616c20696e646578206973206f7574206f6620626f756e6400000000600082015250565b6000610970601c83610822565b915061097b8261093a565b602082019050919050565b6000602082019050818103600083015261099f81610963565b9050919050565b7f4572726f72202d20455243373231205472616e7366657220746f20746865207a60008201527f65726f2061646472657373000000000000000000000000000000000000000000602082015250565b6000610a02602b83610822565b9150610a0d826109a6565b604082019050919050565b60006020820190508181036000830152610a31816109f5565b9050919050565b7f547279696e6720746f207472616e73666572206120746f6b656e20746865206160008201527f64647265737320646f6573206e6f74206f776e00000000000000000000000000602082015250565b6000610a94603383610822565b9150610a9f82610a38565b604082019050919050565b60006020820190508181036000830152610ac381610a87565b9050919050565b7f4e487b7100000000000000000000000000000000000000000000000000000000600052601160045260246000fd5b6000610b0482610648565b9150610b0f83610648565b9250828203905081811115610b2757610b26610aca565b5b92915050565b6000610b3882610648565b9150610b4383610648565b9250828201905080821115610b5b57610b5a610aca565b5b9291505056fea264697066735822122062f9f53fe89209c21501e90a7c9315fb328f8c62ecb5d2bba89595d4c84991d764736f6c63430008130033",
  "immutableReferences": {},
  "source": "//SPDX-License-Identifier: MIT\r\npragma solidity ^0.8.0;\r\nimport './ERC721.sol';\r\n\r\ncontract ERC721Enumerable is ERC721 {\r\n\r\n\r\n    uint256[] private _allTokens;\r\n    // mapping   from   tokenId to position in _allTokens array\r\n    mapping(uint256 => uint256) private _allTokensIndex;        \r\n\r\n    //mapping of owner to list of all owner token ids\r\n    mapping(address => uint256[]) private _ownedTokens;  \r\n\r\n    // mapping from token ID index of the owner tokens list\r\n    mapping (uint256 => uint256) private _ownedTokensIndex;\r\n\r\n    //@notice Count NFTs tracked by this contract\r\n    // @return A count of valid NFTs tracked by this contract, where each one of\r\n    //  them has an assigned and queryable owner not equal to the zero address\r\n    //@notice Enumerate valid NFTs\r\n    //@dev Throws if `_index` >= `totalSupply()`.\r\n    // @param _index A counter less than `totalSupply()`\r\n    // @return The token identifier for the `_index`th NFT,\r\n    //  (sort order not specified)\r\n    //function tokenByIndex(uint256 _index) external view returns (uint256);\r\n\r\n    // @notice Enumerate NFTs assigned to an owner\r\n    // @dev Throws if `_index` >= `balanceOf(_owner)` or if\r\n    //  `_owner` is the zero address, representing invalid NFTs.\r\n    // @param _owner An address where we are interested in NFTs owned by them\r\n    // @param _index A counter less than `balanceOf(_owner)`\r\n    // @return The token identifier for the `_index`th NFT assigned to `_owner`,\r\n    //   (sort order not specified)\r\n    //function tokenOfOwnerByIndex(address _owner, uint256 _index) external view returns (uint256);\r\n\r\n    function _mint(address to, uint256 tokenId)internal override(ERC721){\r\n        super._mint(to, tokenId); \r\n        //Two thhings! a) Add tokens to the owner\r\n        //B) all     tokens to our totalsupply - to allTokens \r\n        _addTokensToAllTokenEnumeration(tokenId);\r\n        _addTokensToOwnerEnumeration(to, tokenId);\r\n    } \r\n    //add tokens to the _alltokens array and set the position of the tokens indexes\r\n    function  _addTokensToAllTokenEnumeration(uint256 tokenId) private{\r\n        _allTokensIndex[tokenId] = _allTokens.length;\r\n        _allTokens.push(tokenId);\r\n    }\r\n\r\n    function _addTokensToOwnerEnumeration(address to,uint256 tokenId) private{\r\n\r\n        //EXERCISE- CHALLENGE\r\n        //1.add address and token id to the ownedTokens\r\n        //2. ownedTokensIndex tokenId set to address of ownedToken position\r\n        //2. we want to execute the function with minting\r\n        _ownedTokensIndex[tokenId] = _ownedTokens[to].length;\r\n        _ownedTokens[to].push(tokenId);\r\n    }\r\n//two functions - one tat returns tokenByIndex and\r\n//another one that returns tokenOfOwnerByIndex\r\n     function tokenByIndex(uint256 index)view public returns (uint256){\r\n        //make sure that the index is not out of bounds of the total supply\r\n        require(index < totalSupply(),'global index is out of bound');\r\n        return _allTokens[index];\r\n     }\r\n\r\n     function tokenOfOwnerByIndex(address owner, uint index)view public returns(uint256){\r\n        require(index < balanceof(owner),'owner index is out of bound');\r\n        return _ownedTokens[owner][index];\r\n     }\r\n    //return the total supply of  the _allTokens array\r\n    function totalSupply()view public returns (uint256) {\r\n        return _allTokens.length;\r\n        \r\n    }\r\n    \r\n}    \r\n",
  "sourcePath": "C:\\Users\\krkve\\Downloads\\nft-marketplace-starter-kit-main\\nft-marketplace-reference\\src\\contracts\\ERC721Enumerable.sol",
  "compiler": {
    "name": "solc",
    "version": "0.8.19+commit.7dd6d404.Emscripten.clang"
  },
  "schemaVersion": "3.4.10",
  "updatedAt": "2023-03-28T00:38:10.322Z",
  "devdoc": {
    "kind": "dev",
    "methods": {},
    "version": 1
  },
  "userdoc": {
    "kind": "user",
    "methods": {},
    "version": 1
  }
}