{
  "contractName": "ERC721Connector",
  "abi": [
    {
      "inputs": [
        {
          "internalType": "string",
          "name": "name",
          "type": "string"
        },
        {
          "internalType": "string",
          "name": "symbol",
          "type": "string"
        }
      ],
      "stateMutability": "nonpayable",
      "type": "constructor"
    },
    {
      "anonymous": false,
      "inputs": [
        {
          "indexed": true,
          "internalType": "address",
          "name": "from",
          "type": "address"
        },
        {
          "indexed": true,
          "internalType": "address",
          "name": "to",
          "type": "address"
        },
        {
          "indexed": true,
          "internalType": "uint256",
          "name": "tokenId",
          "type": "uint256"
        }
      ],
      "name": "Transfer",
      "type": "event"
    },
    {
      "inputs": [
        {
          "internalType": "address",
          "name": "_owner",
          "type": "address"
        }
      ],
      "name": "balanceof",
      "outputs": [
        {
          "internalType": "uint256",
          "name": "",
          "type": "uint256"
        }
      ],
      "stateMutability": "view",
      "type": "function"
    },
    {
      "inputs": [],
      "name": "name",
      "outputs": [
        {
          "internalType": "string",
          "name": "",
          "type": "string"
        }
      ],
      "stateMutability": "view",
      "type": "function"
    },
    {
      "inputs": [
        {
          "internalType": "uint256",
          "name": "_tokenId",
          "type": "uint256"
        }
      ],
      "name": "ownerOf",
      "outputs": [
        {
          "internalType": "address",
          "name": "",
          "type": "address"
        }
      ],
      "stateMutability": "view",
      "type": "function"
    },
    {
      "inputs": [],
      "name": "symbol",
      "outputs": [
        {
          "internalType": "string",
          "name": "",
          "type": "string"
        }
      ],
      "stateMutability": "view",
      "type": "function"
    },
    {
      "inputs": [
        {
          "internalType": "uint256",
          "name": "index",
          "type": "uint256"
        }
      ],
      "name": "tokenByIndex",
      "outputs": [
        {
          "internalType": "uint256",
          "name": "",
          "type": "uint256"
        }
      ],
      "stateMutability": "view",
      "type": "function"
    },
    {
      "inputs": [
        {
          "internalType": "address",
          "name": "owner",
          "type": "address"
        },
        {
          "internalType": "uint256",
          "name": "index",
          "type": "uint256"
        }
      ],
      "name": "tokenOfOwnerByIndex",
      "outputs": [
        {
          "internalType": "uint256",
          "name": "",
          "type": "uint256"
        }
      ],
      "stateMutability": "view",
      "type": "function"
    },
    {
      "inputs": [],
      "name": "totalSupply",
      "outputs": [
        {
          "internalType": "uint256",
          "name": "",
          "type": "uint256"
        }
      ],
      "stateMutability": "view",
      "type": "function"
    },
    {
      "inputs": [
        {
          "internalType": "address",
          "name": "_from",
          "type": "address"
        },
        {
          "internalType": "address",
          "name": "_to",
          "type": "address"
        },
        {
          "internalType": "uint256",
          "name": "_tokenId",
          "type": "uint256"
        }
      ],
      "name": "transferFrom",
      "outputs": [],
      "stateMutability": "nonpayable",
      "type": "function"
    }
  ],
  "bytecode": "0x60806040523480156200001157600080fd5b50604051620013e3380380620013e38339818101604052810190620000379190620001fa565b818181600090816200004a9190620004ca565b5080600190816200005c9190620004ca565b5050505050620005b1565b6000604051905090565b600080fd5b600080fd5b600080fd5b600080fd5b6000601f19601f8301169050919050565b7f4e487b7100000000000000000000000000000000000000000000000000000000600052604160045260246000fd5b620000d08262000085565b810181811067ffffffffffffffff82111715620000f257620000f162000096565b5b80604052505050565b60006200010762000067565b9050620001158282620000c5565b919050565b600067ffffffffffffffff82111562000138576200013762000096565b5b620001438262000085565b9050602081019050919050565b60005b838110156200017057808201518184015260208101905062000153565b60008484015250505050565b6000620001936200018d846200011a565b620000fb565b905082815260208101848484011115620001b257620001b162000080565b5b620001bf84828562000150565b509392505050565b600082601f830112620001df57620001de6200007b565b5b8151620001f18482602086016200017c565b91505092915050565b6000806040838503121562000214576200021362000071565b5b600083015167ffffffffffffffff81111562000235576200023462000076565b5b6200024385828601620001c7565b925050602083015167ffffffffffffffff81111562000267576200026662000076565b5b6200027585828601620001c7565b9150509250929050565b600081519050919050565b7f4e487b7100000000000000000000000000000000000000000000000000000000600052602260045260246000fd5b60006002820490506001821680620002d257607f821691505b602082108103620002e857620002e76200028a565b5b50919050565b60008190508160005260206000209050919050565b60006020601f8301049050919050565b600082821b905092915050565b600060088302620003527fffffffffffffffffffffffffffffffffffffffffffffffffffffffffffffffff8262000313565b6200035e868362000313565b95508019841693508086168417925050509392505050565b6000819050919050565b6000819050919050565b6000620003ab620003a56200039f8462000376565b62000380565b62000376565b9050919050565b6000819050919050565b620003c7836200038a565b620003df620003d682620003b2565b84845462000320565b825550505050565b600090565b620003f6620003e7565b62000403818484620003bc565b505050565b5b818110156200042b576200041f600082620003ec565b60018101905062000409565b5050565b601f8211156200047a576200044481620002ee565b6200044f8462000303565b810160208510156200045f578190505b620004776200046e8562000303565b83018262000408565b50505b505050565b600082821c905092915050565b60006200049f600019846008026200047f565b1980831691505092915050565b6000620004ba83836200048c565b9150826002028217905092915050565b620004d5826200027f565b67ffffffffffffffff811115620004f157620004f062000096565b5b620004fd8254620002b9565b6200050a8282856200042f565b600060209050601f8311600181146200054257600084156200052d578287015190505b620005398582620004ac565b865550620005a9565b601f1984166200055286620002ee565b60005b828110156200057c5784890151825560018201915060208501945060208101905062000555565b868310156200059c578489015162000598601f8916826200048c565b8355505b6001600288020188555050505b505050505050565b610e2280620005c16000396000f3fe608060405234801561001057600080fd5b50600436106100885760003560e01c80633d64125b1161005b5780633d64125b146101155780634f6ccce7146101455780636352211e1461017557806395d89b41146101a557610088565b806306fdde031461008d57806318160ddd146100ab57806323b872dd146100c95780632f745c59146100e5575b600080fd5b6100956101c3565b6040516100a29190610862565b60405180910390f35b6100b3610255565b6040516100c0919061089d565b60405180910390f35b6100e360048036038101906100de9190610947565b610262565b005b6100ff60048036038101906100fa919061099a565b610272565b60405161010c919061089d565b60405180910390f35b61012f600480360381019061012a91906109da565b610322565b60405161013c919061089d565b60405180910390f35b61015f600480360381019061015a9190610a07565b6103d9565b60405161016c919061089d565b60405180910390f35b61018f600480360381019061018a9190610a07565b61044a565b60405161019c9190610a43565b60405180910390f35b6101ad6104fb565b6040516101ba9190610862565b60405180910390f35b6060600080546101d290610a8d565b80601f01602080910402602001604051908101604052809291908181526020018280546101fe90610a8d565b801561024b5780601f106102205761010080835404028352916020019161024b565b820191906000526020600020905b81548152906001019060200180831161022e57829003601f168201915b5050505050905090565b6000600580549050905090565b61026d83838361058d565b505050565b600061027d83610322565b82106102be576040517f08c379a00000000000000000000000000000000000000000000000000000000081526004016102b590610b0a565b60405180910390fd5b600760008473ffffffffffffffffffffffffffffffffffffffff1673ffffffffffffffffffffffffffffffffffffffff168152602001908152602001600020828154811061030f5761030e610b2a565b5b9060005260206000200154905092915050565b60008073ffffffffffffffffffffffffffffffffffffffff168273ffffffffffffffffffffffffffffffffffffffff1603610392576040517f08c379a000000000000000000000000000000000000000000000000000000000815260040161038990610ba5565b60405180910390fd5b600360008373ffffffffffffffffffffffffffffffffffffffff1673ffffffffffffffffffffffffffffffffffffffff168152602001908152602001600020549050919050565b60006103e3610255565b8210610424576040517f08c379a000000000000000000000000000000000000000000000000000000000815260040161041b90610c11565b60405180910390fd5b6005828154811061043857610437610b2a565b5b90600052602060002001549050919050565b6000806002600084815260200190815260200160002060009054906101000a900473ffffffffffffffffffffffffffffffffffffffff169050600073ffffffffffffffffffffffffffffffffffffffff168173ffffffffffffffffffffffffffffffffffffffff16036104f2576040517f08c379a00000000000000000000000000000000000000000000000000000000081526004016104e990610ba5565b60405180910390fd5b80915050919050565b60606001805461050a90610a8d565b80601f016020809104026020016040519081016040528092919081815260200182805461053690610a8d565b80156105835780601f1061055857610100808354040283529160200191610583565b820191906000526020600020905b81548152906001019060200180831161056657829003601f168201915b5050505050905090565b600073ffffffffffffffffffffffffffffffffffffffff168273ffffffffffffffffffffffffffffffffffffffff16036105fc576040517f08c379a00000000000000000000000000000000000000000000000000000000081526004016105f390610ca3565b60405180910390fd5b8273ffffffffffffffffffffffffffffffffffffffff1661061c8261044a565b73ffffffffffffffffffffffffffffffffffffffff1614610672576040517f08c379a000000000000000000000000000000000000000000000000000000000815260040161066990610d35565b60405180910390fd5b6001600360008573ffffffffffffffffffffffffffffffffffffffff1673ffffffffffffffffffffffffffffffffffffffff16815260200190815260200160002060008282546106c29190610d84565b925050819055506001600360008473ffffffffffffffffffffffffffffffffffffffff1673ffffffffffffffffffffffffffffffffffffffff16815260200190815260200160002060008282546107199190610db8565b92505081905550816002600083815260200190815260200160002060006101000a81548173ffffffffffffffffffffffffffffffffffffffff021916908373ffffffffffffffffffffffffffffffffffffffff160217905550808273ffffffffffffffffffffffffffffffffffffffff168473ffffffffffffffffffffffffffffffffffffffff167fddf252ad1be2c89b69c2b068fc378daa952ba7f163c4a11628f55a4df523b3ef60405160405180910390a4505050565b600081519050919050565b600082825260208201905092915050565b60005b8381101561080c5780820151818401526020810190506107f1565b60008484015250505050565b6000601f19601f8301169050919050565b6000610834826107d2565b61083e81856107dd565b935061084e8185602086016107ee565b61085781610818565b840191505092915050565b6000602082019050818103600083015261087c8184610829565b905092915050565b6000819050919050565b61089781610884565b82525050565b60006020820190506108b2600083018461088e565b92915050565b600080fd5b600073ffffffffffffffffffffffffffffffffffffffff82169050919050565b60006108e8826108bd565b9050919050565b6108f8816108dd565b811461090357600080fd5b50565b600081359050610915816108ef565b92915050565b61092481610884565b811461092f57600080fd5b50565b6000813590506109418161091b565b92915050565b6000806000606084860312156109605761095f6108b8565b5b600061096e86828701610906565b935050602061097f86828701610906565b925050604061099086828701610932565b9150509250925092565b600080604083850312156109b1576109b06108b8565b5b60006109bf85828601610906565b92505060206109d085828601610932565b9150509250929050565b6000602082840312156109f0576109ef6108b8565b5b60006109fe84828501610906565b91505092915050565b600060208284031215610a1d57610a1c6108b8565b5b6000610a2b84828501610932565b91505092915050565b610a3d816108dd565b82525050565b6000602082019050610a586000830184610a34565b92915050565b7f4e487b7100000000000000000000000000000000000000000000000000000000600052602260045260246000fd5b60006002820490506001821680610aa557607f821691505b602082108103610ab857610ab7610a5e565b5b50919050565b7f6f776e657220696e646578206973206f7574206f6620626f756e640000000000600082015250565b6000610af4601b836107dd565b9150610aff82610abe565b602082019050919050565b60006020820190508181036000830152610b2381610ae7565b9050919050565b7f4e487b7100000000000000000000000000000000000000000000000000000000600052603260045260246000fd5b7f6f776e657220717565727920666f72206e6f6e2d6578697374656e7400000000600082015250565b6000610b8f601c836107dd565b9150610b9a82610b59565b602082019050919050565b60006020820190508181036000830152610bbe81610b82565b9050919050565b7f676c6f62616c20696e646578206973206f7574206f6620626f756e6400000000600082015250565b6000610bfb601c836107dd565b9150610c0682610bc5565b602082019050919050565b60006020820190508181036000830152610c2a81610bee565b9050919050565b7f4572726f72202d20455243373231205472616e7366657220746f20746865207a60008201527f65726f2061646472657373000000000000000000000000000000000000000000602082015250565b6000610c8d602b836107dd565b9150610c9882610c31565b604082019050919050565b60006020820190508181036000830152610cbc81610c80565b9050919050565b7f547279696e6720746f207472616e73666572206120746f6b656e20746865206160008201527f64647265737320646f6573206e6f74206f776e00000000000000000000000000602082015250565b6000610d1f6033836107dd565b9150610d2a82610cc3565b604082019050919050565b60006020820190508181036000830152610d4e81610d12565b9050919050565b7f4e487b7100000000000000000000000000000000000000000000000000000000600052601160045260246000fd5b6000610d8f82610884565b9150610d9a83610884565b9250828203905081811115610db257610db1610d55565b5b92915050565b6000610dc382610884565b9150610dce83610884565b9250828201905080821115610de657610de5610d55565b5b9291505056fea264697066735822122013163b3258fdb7d982be1f28674eac1e1f90224b787e8992092b4cae875b5fb164736f6c63430008130033",
  "immutableReferences": {},
  "source": "//SPDX-License-Identifier: MIT\r\npragma solidity ^0.8.0;\r\n\r\nimport './ERC721Metadata.sol';\r\nimport './ERC721Enumerable.sol';\r\n\r\n\r\ncontract ERC721Connector is ERC721Metadata, ERC721Enumerable {\r\n            // we deploy connector right away\r\n            // we want to carry the metadata info over    \r\n         constructor(string memory name, string memory symbol) ERC721Metadata(name, symbol){\r\n                \r\n} \r\n\r\n}",
  "sourcePath": "C:\\Users\\krkve\\Downloads\\nft-marketplace-starter-kit-main\\nft-marketplace-reference\\src\\contracts\\ERC721Connector.sol",
  "compiler": {
    "name": "solc",
    "version": "0.8.19+commit.7dd6d404.Emscripten.clang"
  },
  "schemaVersion": "3.4.10",
  "updatedAt": "2023-03-28T00:38:10.318Z",
  "devdoc": {
    "kind": "dev",
    "methods": {},
    "version": 1
  },
  "userdoc": {
    "kind": "user",
    "methods": {},
    "version": 1
  }
}